{
  "contractName": "SupplyChain",
  "abi": [
    {
      "inputs": [],
      "payable": true,
      "stateMutability": "payable",
      "type": "constructor"
    },
    {
      "anonymous": false,
      "inputs": [
        {
          "indexed": true,
          "internalType": "address",
          "name": "account",
          "type": "address"
        }
      ],
      "name": "ConsumerAdded",
      "type": "event"
    },
    {
      "anonymous": false,
      "inputs": [
        {
          "indexed": true,
          "internalType": "address",
          "name": "account",
          "type": "address"
        }
      ],
      "name": "ConsumerRemoved",
      "type": "event"
    },
    {
      "anonymous": false,
      "inputs": [
        {
          "indexed": true,
          "internalType": "address",
          "name": "account",
          "type": "address"
        }
      ],
      "name": "DistributorAdded",
      "type": "event"
    },
    {
      "anonymous": false,
      "inputs": [
        {
          "indexed": true,
          "internalType": "address",
          "name": "account",
          "type": "address"
        }
      ],
      "name": "DistributorRemoved",
      "type": "event"
    },
    {
      "anonymous": false,
      "inputs": [
        {
          "indexed": true,
          "internalType": "address",
          "name": "account",
          "type": "address"
        }
      ],
      "name": "FarmerAdded",
      "type": "event"
    },
    {
      "anonymous": false,
      "inputs": [
        {
          "indexed": true,
          "internalType": "address",
          "name": "account",
          "type": "address"
        }
      ],
      "name": "FarmerRemoved",
      "type": "event"
    },
    {
      "anonymous": false,
      "inputs": [
        {
          "indexed": false,
          "internalType": "uint256",
          "name": "upc",
          "type": "uint256"
        }
      ],
      "name": "ForSaleByDistributor",
      "type": "event"
    },
    {
      "anonymous": false,
      "inputs": [
        {
          "indexed": false,
          "internalType": "uint256",
          "name": "upc",
          "type": "uint256"
        }
      ],
      "name": "ForSaleByFarmer",
      "type": "event"
    },
    {
      "anonymous": false,
      "inputs": [
        {
          "indexed": false,
          "internalType": "uint256",
          "name": "upc",
          "type": "uint256"
        }
      ],
      "name": "ForSaleByRetailer",
      "type": "event"
    },
    {
      "anonymous": false,
      "inputs": [
        {
          "indexed": false,
          "internalType": "uint256",
          "name": "upc",
          "type": "uint256"
        }
      ],
      "name": "PackagedByDistributor",
      "type": "event"
    },
    {
      "anonymous": false,
      "inputs": [
        {
          "indexed": false,
          "internalType": "uint256",
          "name": "upc",
          "type": "uint256"
        }
      ],
      "name": "ProcessedByDistributor",
      "type": "event"
    },
    {
      "anonymous": false,
      "inputs": [
        {
          "indexed": false,
          "internalType": "uint256",
          "name": "upc",
          "type": "uint256"
        }
      ],
      "name": "ProduceByFarmer",
      "type": "event"
    },
    {
      "anonymous": false,
      "inputs": [
        {
          "indexed": false,
          "internalType": "uint256",
          "name": "upc",
          "type": "uint256"
        }
      ],
      "name": "PurchasedByConsumer",
      "type": "event"
    },
    {
      "anonymous": false,
      "inputs": [
        {
          "indexed": false,
          "internalType": "uint256",
          "name": "upc",
          "type": "uint256"
        }
      ],
      "name": "PurchasedByDistributor",
      "type": "event"
    },
    {
      "anonymous": false,
      "inputs": [
        {
          "indexed": false,
          "internalType": "uint256",
          "name": "upc",
          "type": "uint256"
        }
      ],
      "name": "PurchasedByRetailer",
      "type": "event"
    },
    {
      "anonymous": false,
      "inputs": [
        {
          "indexed": false,
          "internalType": "uint256",
          "name": "upc",
          "type": "uint256"
        }
      ],
      "name": "ReceivedByDistributor",
      "type": "event"
    },
    {
      "anonymous": false,
      "inputs": [
        {
          "indexed": false,
          "internalType": "uint256",
          "name": "upc",
          "type": "uint256"
        }
      ],
      "name": "ReceivedByRetailer",
      "type": "event"
    },
    {
      "anonymous": false,
      "inputs": [
        {
          "indexed": true,
          "internalType": "address",
          "name": "account",
          "type": "address"
        }
      ],
      "name": "RetailerAdded",
      "type": "event"
    },
    {
      "anonymous": false,
      "inputs": [
        {
          "indexed": true,
          "internalType": "address",
          "name": "account",
          "type": "address"
        }
      ],
      "name": "RetailerRemoved",
      "type": "event"
    },
    {
      "anonymous": false,
      "inputs": [
        {
          "indexed": false,
          "internalType": "uint256",
          "name": "upc",
          "type": "uint256"
        }
      ],
      "name": "ShippedByDistributor",
      "type": "event"
    },
    {
      "anonymous": false,
      "inputs": [
        {
          "indexed": false,
          "internalType": "uint256",
          "name": "upc",
          "type": "uint256"
        }
      ],
      "name": "ShippedByFarmer",
      "type": "event"
    },
    {
      "anonymous": false,
      "inputs": [
        {
          "indexed": true,
          "internalType": "address",
          "name": "oldOwner",
          "type": "address"
        },
        {
          "indexed": true,
          "internalType": "address",
          "name": "newOwner",
          "type": "address"
        }
      ],
      "name": "TransferOwnership",
      "type": "event"
    },
    {
      "constant": false,
      "inputs": [
        {
          "internalType": "address",
          "name": "account",
          "type": "address"
        }
      ],
      "name": "addConsumer",
      "outputs": [],
      "payable": false,
      "stateMutability": "nonpayable",
      "type": "function"
    },
    {
      "constant": false,
      "inputs": [
        {
          "internalType": "address",
          "name": "account",
          "type": "address"
        }
      ],
      "name": "addDistributor",
      "outputs": [],
      "payable": false,
      "stateMutability": "nonpayable",
      "type": "function"
    },
    {
      "constant": false,
      "inputs": [
        {
          "internalType": "address",
          "name": "account",
          "type": "address"
        }
      ],
      "name": "addFarmer",
      "outputs": [],
      "payable": false,
      "stateMutability": "nonpayable",
      "type": "function"
    },
    {
      "constant": false,
      "inputs": [
        {
          "internalType": "address",
          "name": "account",
          "type": "address"
        }
      ],
      "name": "addRetailer",
      "outputs": [],
      "payable": false,
      "stateMutability": "nonpayable",
      "type": "function"
    },
    {
      "constant": true,
      "inputs": [
        {
          "internalType": "address",
          "name": "account",
          "type": "address"
        }
      ],
      "name": "isConsumer",
      "outputs": [
        {
          "internalType": "bool",
          "name": "",
          "type": "bool"
        }
      ],
      "payable": false,
      "stateMutability": "view",
      "type": "function"
    },
    {
      "constant": true,
      "inputs": [
        {
          "internalType": "address",
          "name": "account",
          "type": "address"
        }
      ],
      "name": "isDistributor",
      "outputs": [
        {
          "internalType": "bool",
          "name": "",
          "type": "bool"
        }
      ],
      "payable": false,
      "stateMutability": "view",
      "type": "function"
    },
    {
      "constant": true,
      "inputs": [
        {
          "internalType": "address",
          "name": "account",
          "type": "address"
        }
      ],
      "name": "isFarmer",
      "outputs": [
        {
          "internalType": "bool",
          "name": "",
          "type": "bool"
        }
      ],
      "payable": false,
      "stateMutability": "view",
      "type": "function"
    },
    {
      "constant": true,
      "inputs": [],
      "name": "isOwner",
      "outputs": [
        {
          "internalType": "bool",
          "name": "",
          "type": "bool"
        }
      ],
      "payable": false,
      "stateMutability": "view",
      "type": "function"
    },
    {
      "constant": true,
      "inputs": [
        {
          "internalType": "address",
          "name": "account",
          "type": "address"
        }
      ],
      "name": "isRetailer",
      "outputs": [
        {
          "internalType": "bool",
          "name": "",
          "type": "bool"
        }
      ],
      "payable": false,
      "stateMutability": "view",
      "type": "function"
    },
    {
      "constant": true,
      "inputs": [],
      "name": "ownerLookup",
      "outputs": [
        {
          "internalType": "address",
          "name": "",
          "type": "address"
        }
      ],
      "payable": false,
      "stateMutability": "view",
      "type": "function"
    },
    {
      "constant": false,
      "inputs": [
        {
          "internalType": "address",
          "name": "account",
          "type": "address"
        }
      ],
      "name": "renounceConsumer",
      "outputs": [],
      "payable": false,
      "stateMutability": "nonpayable",
      "type": "function"
    },
    {
      "constant": false,
      "inputs": [],
      "name": "renounceDistributor",
      "outputs": [],
      "payable": false,
      "stateMutability": "nonpayable",
      "type": "function"
    },
    {
      "constant": false,
      "inputs": [],
      "name": "renounceFarmer",
      "outputs": [],
      "payable": false,
      "stateMutability": "nonpayable",
      "type": "function"
    },
    {
      "constant": false,
      "inputs": [],
      "name": "renounceOwnership",
      "outputs": [],
      "payable": false,
      "stateMutability": "nonpayable",
      "type": "function"
    },
    {
      "constant": false,
      "inputs": [],
      "name": "renounceRetailer",
      "outputs": [],
      "payable": false,
      "stateMutability": "nonpayable",
      "type": "function"
    },
    {
      "constant": false,
      "inputs": [
        {
          "internalType": "address",
          "name": "newOwner",
          "type": "address"
        }
      ],
      "name": "transferOwnership",
      "outputs": [],
      "payable": false,
      "stateMutability": "nonpayable",
      "type": "function"
    },
    {
      "constant": false,
      "inputs": [],
      "name": "kill",
      "outputs": [],
      "payable": false,
      "stateMutability": "nonpayable",
      "type": "function"
    },
    {
      "constant": false,
      "inputs": [
        {
          "internalType": "uint256",
          "name": "_upc",
          "type": "uint256"
        },
        {
          "internalType": "string",
          "name": "_originFarmName",
          "type": "string"
        },
        {
          "internalType": "string",
          "name": "_originFarmInformation",
          "type": "string"
        },
        {
          "internalType": "string",
          "name": "_originFarmLatitude",
          "type": "string"
        },
        {
          "internalType": "string",
          "name": "_originFarmLongitude",
          "type": "string"
        },
        {
          "internalType": "string",
          "name": "_productNotes",
          "type": "string"
        },
        {
          "internalType": "uint256",
          "name": "_price",
          "type": "uint256"
        }
      ],
      "name": "produceItemByFarmer",
      "outputs": [],
      "payable": false,
      "stateMutability": "nonpayable",
      "type": "function"
    },
    {
      "constant": false,
      "inputs": [
        {
          "internalType": "uint256",
          "name": "_upc",
          "type": "uint256"
        },
        {
          "internalType": "uint256",
          "name": "_price",
          "type": "uint256"
        }
      ],
      "name": "sellItemByFarmer",
      "outputs": [],
      "payable": false,
      "stateMutability": "nonpayable",
      "type": "function"
    },
    {
      "constant": false,
      "inputs": [
        {
          "internalType": "uint256",
          "name": "_upc",
          "type": "uint256"
        }
      ],
      "name": "purchaseItemByDistributor",
      "outputs": [],
      "payable": true,
      "stateMutability": "payable",
      "type": "function"
    },
    {
      "constant": false,
      "inputs": [
        {
          "internalType": "uint256",
          "name": "_upc",
          "type": "uint256"
        }
      ],
      "name": "shippedItemByFarmer",
      "outputs": [],
      "payable": true,
      "stateMutability": "payable",
      "type": "function"
    },
    {
      "constant": false,
      "inputs": [
        {
          "internalType": "uint256",
          "name": "_upc",
          "type": "uint256"
        }
      ],
      "name": "receivedItemByDistributor",
      "outputs": [],
      "payable": false,
      "stateMutability": "nonpayable",
      "type": "function"
    },
    {
      "constant": false,
      "inputs": [
        {
          "internalType": "uint256",
          "name": "_upc",
          "type": "uint256"
        },
        {
          "internalType": "uint256",
          "name": "slices",
          "type": "uint256"
        }
      ],
      "name": "processedItemByDistributor",
      "outputs": [],
      "payable": false,
      "stateMutability": "nonpayable",
      "type": "function"
    },
    {
      "constant": false,
      "inputs": [
        {
          "internalType": "uint256",
          "name": "_upc",
          "type": "uint256"
        }
      ],
      "name": "packageItemByDistributor",
      "outputs": [],
      "payable": false,
      "stateMutability": "nonpayable",
      "type": "function"
    },
    {
      "constant": false,
      "inputs": [
        {
          "internalType": "uint256",
          "name": "_upc",
          "type": "uint256"
        },
        {
          "internalType": "uint256",
          "name": "_price",
          "type": "uint256"
        }
      ],
      "name": "sellItemByDistributor",
      "outputs": [],
      "payable": false,
      "stateMutability": "nonpayable",
      "type": "function"
    },
    {
      "constant": false,
      "inputs": [
        {
          "internalType": "uint256",
          "name": "_upc",
          "type": "uint256"
        }
      ],
      "name": "purchaseItemByRetailer",
      "outputs": [],
      "payable": true,
      "stateMutability": "payable",
      "type": "function"
    },
    {
      "constant": false,
      "inputs": [
        {
          "internalType": "uint256",
          "name": "_upc",
          "type": "uint256"
        }
      ],
      "name": "shippedItemByDistributor",
      "outputs": [],
      "payable": false,
      "stateMutability": "nonpayable",
      "type": "function"
    },
    {
      "constant": false,
      "inputs": [
        {
          "internalType": "uint256",
          "name": "_upc",
          "type": "uint256"
        }
      ],
      "name": "receivedItemByRetailer",
      "outputs": [],
      "payable": false,
      "stateMutability": "nonpayable",
      "type": "function"
    },
    {
      "constant": false,
      "inputs": [
        {
          "internalType": "uint256",
          "name": "_upc",
          "type": "uint256"
        },
        {
          "internalType": "uint256",
          "name": "_price",
          "type": "uint256"
        }
      ],
      "name": "sellItemByRetailer",
      "outputs": [],
      "payable": false,
      "stateMutability": "nonpayable",
      "type": "function"
    },
    {
      "constant": false,
      "inputs": [
        {
          "internalType": "uint256",
          "name": "_upc",
          "type": "uint256"
        }
      ],
      "name": "purchaseItemByConsumer",
      "outputs": [],
      "payable": true,
      "stateMutability": "payable",
      "type": "function"
    },
    {
      "constant": true,
      "inputs": [
        {
          "internalType": "uint256",
          "name": "_upc",
          "type": "uint256"
        }
      ],
      "name": "fetchItemBufferOne",
      "outputs": [
        {
          "internalType": "uint256",
          "name": "itemSKU",
          "type": "uint256"
        },
        {
          "internalType": "uint256",
          "name": "itemUPC",
          "type": "uint256"
        },
        {
          "internalType": "address",
          "name": "ownerID",
          "type": "address"
        },
        {
          "internalType": "address",
          "name": "originFarmerID",
          "type": "address"
        },
        {
          "internalType": "string",
          "name": "originFarmName",
          "type": "string"
        },
        {
          "internalType": "string",
          "name": "originFarmInformation",
          "type": "string"
        },
        {
          "internalType": "string",
          "name": "originFarmLatitude",
          "type": "string"
        },
        {
          "internalType": "string",
          "name": "originFarmLongitude",
          "type": "string"
        },
        {
          "internalType": "uint256",
          "name": "productDate",
          "type": "uint256"
        },
        {
          "internalType": "uint256",
          "name": "productSliced",
          "type": "uint256"
        }
      ],
      "payable": false,
      "stateMutability": "view",
      "type": "function"
    },
    {
      "constant": true,
      "inputs": [
        {
          "internalType": "uint256",
          "name": "_upc",
          "type": "uint256"
        }
      ],
      "name": "fetchItemBufferTwo",
      "outputs": [
        {
          "internalType": "uint256",
          "name": "itemSKU",
          "type": "uint256"
        },
        {
          "internalType": "uint256",
          "name": "itemUPC",
          "type": "uint256"
        },
        {
          "internalType": "uint256",
          "name": "productID",
          "type": "uint256"
        },
        {
          "internalType": "string",
          "name": "productNotes",
          "type": "string"
        },
        {
          "internalType": "uint256",
          "name": "productPrice",
          "type": "uint256"
        },
        {
          "internalType": "uint256",
          "name": "productDate",
          "type": "uint256"
        },
        {
          "internalType": "enum SupplyChain.State",
          "name": "itemState",
          "type": "uint8"
        },
        {
          "internalType": "address",
          "name": "distributorID",
          "type": "address"
        },
        {
          "internalType": "address",
          "name": "retailerID",
          "type": "address"
        },
        {
          "internalType": "address",
          "name": "consumerID",
          "type": "address"
        }
      ],
      "payable": false,
      "stateMutability": "view",
      "type": "function"
    },
    {
      "constant": true,
      "inputs": [
        {
          "internalType": "uint256",
          "name": "_upc",
          "type": "uint256"
        }
      ],
      "name": "fetchitemHistory",
      "outputs": [
        {
          "internalType": "uint256",
          "name": "blockfarmerToDistributor",
          "type": "uint256"
        },
        {
          "internalType": "uint256",
          "name": "blockDistributorToRetailer",
          "type": "uint256"
        },
        {
          "internalType": "uint256",
          "name": "blockRetailerToConsumer",
          "type": "uint256"
        }
      ],
      "payable": false,
      "stateMutability": "view",
      "type": "function"
    }
  ],
  "bytecode": "0x6080604052336000806101000a81548173ffffffffffffffffffffffffffffffffffffffff021916908373ffffffffffffffffffffffffffffffffffffffff1602179055506000809054906101000a900473ffffffffffffffffffffffffffffffffffffffff1673ffffffffffffffffffffffffffffffffffffffff16600073ffffffffffffffffffffffffffffffffffffffff167f5c486528ec3e3f0ea91181cff8116f02bfa350e03b8b6f12e00765adbb5af85c60405160405180910390a3620000d1336200015b60201b60201c565b620000e233620001bc60201b60201c565b620000f3336200021d60201b60201c565b62000104336200027e60201b60201c565b33600560006101000a81548173ffffffffffffffffffffffffffffffffffffffff021916908373ffffffffffffffffffffffffffffffffffffffff1602179055506001600781905550600160068190555062000428565b62000176816001620002df60201b62003e291790919060201c565b8073ffffffffffffffffffffffffffffffffffffffff167f2e0ded4123377a3c2bc9a26f1717655a129e2f20752924d42e730ec89c83dbd060405160405180910390a250565b620001d7816002620002df60201b62003e291790919060201c565b8073ffffffffffffffffffffffffffffffffffffffff167fddbf200aa634dc3fb81cfd68583dd1040d1c751d335e1d86b631bde3e977fea860405160405180910390a250565b62000238816003620002df60201b62003e291790919060201c565b8073ffffffffffffffffffffffffffffffffffffffff167f71ae26cad02663e3d92efd6ec56031a80d74a20c0ab4183faa8bf262261c9baa60405160405180910390a250565b62000299816004620002df60201b62003e291790919060201c565b8073ffffffffffffffffffffffffffffffffffffffff167f28b26e7a3d20aedbc5f8f2ebf7da671c0491723a2b78f47a097b0e46dee0714260405160405180910390a250565b600073ffffffffffffffffffffffffffffffffffffffff168173ffffffffffffffffffffffffffffffffffffffff1614156200031a57600080fd5b6200032c82826200039560201b60201c565b156200033757600080fd5b60018260000160008373ffffffffffffffffffffffffffffffffffffffff1673ffffffffffffffffffffffffffffffffffffffff16815260200190815260200160002060006101000a81548160ff0219169083151502179055505050565b60008073ffffffffffffffffffffffffffffffffffffffff168273ffffffffffffffffffffffffffffffffffffffff161415620003d157600080fd5b8260000160008373ffffffffffffffffffffffffffffffffffffffff1673ffffffffffffffffffffffffffffffffffffffff16815260200190815260200160002060009054906101000a900460ff16905092915050565b61417880620004386000396000f3fe6080604052600436106101ee5760003560e01c806382e831ec1161010d578063db0e6a2f116100a0578063e618f0001161006f578063e618f00014610f68578063eab7d6e814610fad578063f2fde38b14610ff2578063f487d48d14611043578063fdcdc06f14611094576101ee565b8063db0e6a2f14610b94578063df74dc3a14610bab578063e02e64ea14610bd9578063e2bb26e914610c30576101ee565b80638f0c86fa116100dc5780638f0c86fa14610a585780638f32d59b14610ac15780639154135514610af0578063b942906914610b2b576101ee565b806382e831ec1461091e578063834ff739146109595780638adff8ba146109c25780638ec4f50514610a07576101ee565b8063644241db116101855780637250e224116101545780637250e224146105eb57806377c459131461063c57806380c3f96d146108b657806380fc0ce414610907576101ee565b8063644241db1461040a57806366225ff914610421578063715018a6146105a657806371f3ff90146105bd576101ee565b806337b2f92c116101c157806337b2f92c1461030a57806341c0e1b514610345578063546eb5861461035c5780635da09b88146103a1576101ee565b8063112940f9146101f35780631154501c1461024457806324cb1669146102a157806326d529b4146102dc575b600080fd5b3480156101ff57600080fd5b506102426004803603602081101561021657600080fd5b81019080803573ffffffffffffffffffffffffffffffffffffffff1690602001909291905050506110c2565b005b34801561025057600080fd5b5061027d6004803603602081101561026757600080fd5b81019080803590602001909291905050506110e0565b60405180848152602001838152602001828152602001935050505060405180910390f35b3480156102ad57600080fd5b506102da600480360360208110156102c457600080fd5b8101908080359060200190929190505050611148565b005b610308600480360360208110156102f257600080fd5b8101908080359060200190929190505050611284565b005b34801561031657600080fd5b506103436004803603602081101561032d57600080fd5b8101908080359060200190929190505050611549565b005b34801561035157600080fd5b5061035a611685565b005b34801561036857600080fd5b5061039f6004803603604081101561037f57600080fd5b810190808035906020019092919080359060200190929190505050611725565b005b3480156103ad57600080fd5b506103f0600480360360208110156103c457600080fd5b81019080803573ffffffffffffffffffffffffffffffffffffffff16906020019092919050505061187d565b604051808215151515815260200191505060405180910390f35b34801561041657600080fd5b5061041f61189a565b005b34801561042d57600080fd5b5061045a6004803603602081101561044457600080fd5b81019080803590602001909291905050506118a5565b604051808b81526020018a81526020018981526020018060200188815260200187815260200186600c81111561048c57fe5b60ff1681526020018573ffffffffffffffffffffffffffffffffffffffff1673ffffffffffffffffffffffffffffffffffffffff1681526020018473ffffffffffffffffffffffffffffffffffffffff1673ffffffffffffffffffffffffffffffffffffffff1681526020018373ffffffffffffffffffffffffffffffffffffffff1673ffffffffffffffffffffffffffffffffffffffff168152602001828103825289818151815260200191508051906020019080838360005b83811015610562578082015181840152602081019050610547565b50505050905090810190601f16801561058f5780820380516001836020036101000a031916815260200191505b509b50505050505050505050505060405180910390f35b3480156105b257600080fd5b506105bb611e7e565b005b6105e9600480360360208110156105d357600080fd5b8101908080359060200190929190505050611f97565b005b3480156105f757600080fd5b5061063a6004803603602081101561060e57600080fd5b81019080803573ffffffffffffffffffffffffffffffffffffffff1690602001909291905050506120d3565b005b34801561064857600080fd5b506106756004803603602081101561065f57600080fd5b81019080803590602001909291905050506120f1565b604051808b81526020018a81526020018973ffffffffffffffffffffffffffffffffffffffff1673ffffffffffffffffffffffffffffffffffffffff1681526020018873ffffffffffffffffffffffffffffffffffffffff1673ffffffffffffffffffffffffffffffffffffffff1681526020018060200180602001806020018060200187815260200186815260200185810385528b818151815260200191508051906020019080838360005b8381101561073d578082015181840152602081019050610722565b50505050905090810190601f16801561076a5780820380516001836020036101000a031916815260200191505b5085810384528a818151815260200191508051906020019080838360005b838110156107a3578082015181840152602081019050610788565b50505050905090810190601f1680156107d05780820380516001836020036101000a031916815260200191505b50858103835289818151815260200191508051906020019080838360005b838110156108095780820151818401526020810190506107ee565b50505050905090810190601f1680156108365780820380516001836020036101000a031916815260200191505b50858103825288818151815260200191508051906020019080838360005b8381101561086f578082015181840152602081019050610854565b50505050905090810190601f16801561089c5780820380516001836020036101000a031916815260200191505b509e50505050505050505050505050505060405180910390f35b3480156108c257600080fd5b50610905600480360360208110156108d957600080fd5b81019080803573ffffffffffffffffffffffffffffffffffffffff1690602001909291905050506126cc565b005b34801561091357600080fd5b5061091c6126ea565b005b34801561092a57600080fd5b506109576004803603602081101561094157600080fd5b81019080803590602001909291905050506126f5565b005b34801561096557600080fd5b506109a86004803603602081101561097c57600080fd5b81019080803573ffffffffffffffffffffffffffffffffffffffff169060200190929190505050612831565b604051808215151515815260200191505060405180910390f35b3480156109ce57600080fd5b50610a05600480360360408110156109e557600080fd5b81019080803590602001909291908035906020019092919050505061284e565b005b348015610a1357600080fd5b50610a5660048036036020811015610a2a57600080fd5b81019080803573ffffffffffffffffffffffffffffffffffffffff1690602001909291905050506129a8565b005b348015610a6457600080fd5b50610aa760048036036020811015610a7b57600080fd5b81019080803573ffffffffffffffffffffffffffffffffffffffff1690602001909291905050506129c6565b604051808215151515815260200191505060405180910390f35b348015610acd57600080fd5b50610ad66129e3565b604051808215151515815260200191505060405180910390f35b348015610afc57600080fd5b50610b2960048036036020811015610b1357600080fd5b8101908080359060200190929190505050612a3a565b005b348015610b3757600080fd5b50610b7a60048036036020811015610b4e57600080fd5b81019080803573ffffffffffffffffffffffffffffffffffffffff169060200190929190505050612b76565b604051808215151515815260200191505060405180910390f35b348015610ba057600080fd5b50610ba9612b93565b005b610bd760048036036020811015610bc157600080fd5b8101908080359060200190929190505050612b9e565b005b348015610be557600080fd5b50610bee612eb9565b604051808273ffffffffffffffffffffffffffffffffffffffff1673ffffffffffffffffffffffffffffffffffffffff16815260200191505060405180910390f35b348015610c3c57600080fd5b50610f66600480360360e0811015610c5357600080fd5b810190808035906020019092919080359060200190640100000000811115610c7a57600080fd5b820183602082011115610c8c57600080fd5b80359060200191846001830284011164010000000083111715610cae57600080fd5b91908080601f016020809104026020016040519081016040528093929190818152602001838380828437600081840152601f19601f82011690508083019250505050505050919291929080359060200190640100000000811115610d1157600080fd5b820183602082011115610d2357600080fd5b80359060200191846001830284011164010000000083111715610d4557600080fd5b91908080601f016020809104026020016040519081016040528093929190818152602001838380828437600081840152601f19601f82011690508083019250505050505050919291929080359060200190640100000000811115610da857600080fd5b820183602082011115610dba57600080fd5b80359060200191846001830284011164010000000083111715610ddc57600080fd5b91908080601f016020809104026020016040519081016040528093929190818152602001838380828437600081840152601f19601f82011690508083019250505050505050919291929080359060200190640100000000811115610e3f57600080fd5b820183602082011115610e5157600080fd5b80359060200191846001830284011164010000000083111715610e7357600080fd5b91908080601f016020809104026020016040519081016040528093929190818152602001838380828437600081840152601f19601f82011690508083019250505050505050919291929080359060200190640100000000811115610ed657600080fd5b820183602082011115610ee857600080fd5b80359060200191846001830284011164010000000083111715610f0a57600080fd5b91908080601f016020809104026020016040519081016040528093929190818152602001838380828437600081840152601f19601f82011690508083019250505050505050919291929080359060200190929190505050612ee2565b005b348015610f7457600080fd5b50610fab60048036036040811015610f8b57600080fd5b8101908080359060200190929190803590602001909291905050506133dd565b005b348015610fb957600080fd5b50610ff060048036036040811015610fd057600080fd5b810190808035906020019092919080359060200190929190505050613535565b005b348015610ffe57600080fd5b506110416004803603602081101561101557600080fd5b81019080803573ffffffffffffffffffffffffffffffffffffffff16906020019092919050505061368d565b005b34801561104f57600080fd5b506110926004803603602081101561106657600080fd5b81019080803573ffffffffffffffffffffffffffffffffffffffff1690602001909291905050506136f3565b005b6110c0600480360360208110156110aa57600080fd5b81019080803590602001909291905050506136ff565b005b6110cb33612831565b6110d457600080fd5b6110dd816139c5565b50565b60008060006110ed613f80565b6009600086815260200190815260200160002060405180606001604052908160008201548152602001600182015481526020016002820154815250509050806000015181602001518260400151935093509350509193909250565b611151336129c6565b61115a57600080fd5b806003600c81111561116857fe5b60086000838152602001908152602001600020600d0160009054906101000a900460ff16600c81111561119757fe5b146111a157600080fd5b6008600083815260200190815260200160002060020160009054906101000a900473ffffffffffffffffffffffffffffffffffffffff168073ffffffffffffffffffffffffffffffffffffffff163373ffffffffffffffffffffffffffffffffffffffff161461121057600080fd5b600460086000858152602001908152602001600020600d0160006101000a81548160ff0219169083600c81111561124357fe5b02179055507fc8ca2150e6e1849a10ef5aa4932060fa353bcacdffeb150c9e1890c6ab9403cc836040518082815260200191505060405180910390a1505050565b61128d3361187d565b61129657600080fd5b806007600c8111156112a457fe5b60086000838152602001908152602001600020600d0160009054906101000a900460ff16600c8111156112d357fe5b146112dd57600080fd5b60086000838152602001908152602001600020600b01548034101561130157600080fd5b8233600060086000848152602001908152602001600020600b01549050600081340390508273ffffffffffffffffffffffffffffffffffffffff166108fc829081150290604051600060405180830381858888f1935050505015801561136b573d6000803e3d6000fd5b5060006113ad600860008a8152602001908152602001600020600d0160019054906101000a900473ffffffffffffffffffffffffffffffffffffffff16613a1f565b90508073ffffffffffffffffffffffffffffffffffffffff166108fc600860008b8152602001908152602001600020600b01549081150290604051600060405180830381858888f1935050505015801561140b573d6000803e3d6000fd5b5033600860008a815260200190815260200160002060020160006101000a81548173ffffffffffffffffffffffffffffffffffffffff021916908373ffffffffffffffffffffffffffffffffffffffff16021790555033600860008a8152602001908152602001600020600e0160006101000a81548173ffffffffffffffffffffffffffffffffffffffff021916908373ffffffffffffffffffffffffffffffffffffffff16021790555060088060008a8152602001908152602001600020600d0160006101000a81548160ff0219169083600c8111156114e857fe5b021790555043600960008a8152602001908152602001600020600101819055507faa7352d10146444c3afd9bd7fb0ae56b0a85e81139536bbec3f1f660fddd7be1886040518082815260200191505060405180910390a15050505050505050565b6115523361187d565b61155b57600080fd5b806009600c81111561156957fe5b60086000838152602001908152602001600020600d0160009054906101000a900460ff16600c81111561159857fe5b146115a257600080fd5b6008600083815260200190815260200160002060020160009054906101000a900473ffffffffffffffffffffffffffffffffffffffff168073ffffffffffffffffffffffffffffffffffffffff163373ffffffffffffffffffffffffffffffffffffffff161461161157600080fd5b600a60086000858152602001908152602001600020600d0160006101000a81548160ff0219169083600c81111561164457fe5b02179055507f322f34e90f2269750b3e28178631d975cc678db36f21098fe548b7f755ce0bd0836040518082815260200191505060405180910390a1505050565b600560009054906101000a900473ffffffffffffffffffffffffffffffffffffffff1673ffffffffffffffffffffffffffffffffffffffff163373ffffffffffffffffffffffffffffffffffffffff161415611723576000611708600560009054906101000a900473ffffffffffffffffffffffffffffffffffffffff16613a1f565b90508073ffffffffffffffffffffffffffffffffffffffff16ff5b565b61172e3361187d565b61173757600080fd5b81600a600c81111561174557fe5b60086000838152602001908152602001600020600d0160009054906101000a900460ff16600c81111561177457fe5b1461177e57600080fd5b6008600084815260200190815260200160002060020160009054906101000a900473ffffffffffffffffffffffffffffffffffffffff168073ffffffffffffffffffffffffffffffffffffffff163373ffffffffffffffffffffffffffffffffffffffff16146117ed57600080fd5b600b60086000868152602001908152602001600020600d0160006101000a81548160ff0219169083600c81111561182057fe5b02179055508260086000868152602001908152602001600020600b01819055507f59e7ad085805e2b02ad4b0f8033bd75e7ee4c8cd43f996267463585e35896252846040518082815260200191505060405180910390a150505050565b6000611893826003613a2990919063ffffffff16565b9050919050565b6118a333613abb565b565b600080600060606000806000806000806118bd613fa1565b600860008d81526020019081526020016000206040518061022001604052908160008201548152602001600182015481526020016002820160009054906101000a900473ffffffffffffffffffffffffffffffffffffffff1673ffffffffffffffffffffffffffffffffffffffff1673ffffffffffffffffffffffffffffffffffffffff1681526020016003820160009054906101000a900473ffffffffffffffffffffffffffffffffffffffff1673ffffffffffffffffffffffffffffffffffffffff1673ffffffffffffffffffffffffffffffffffffffff168152602001600482018054600181600116156101000203166002900480601f016020809104026020016040519081016040528092919081815260200182805460018160011615610100020316600290048015611a355780601f10611a0a57610100808354040283529160200191611a35565b820191906000526020600020905b815481529060010190602001808311611a1857829003601f168201915b50505050508152602001600582018054600181600116156101000203166002900480601f016020809104026020016040519081016040528092919081815260200182805460018160011615610100020316600290048015611ad75780601f10611aac57610100808354040283529160200191611ad7565b820191906000526020600020905b815481529060010190602001808311611aba57829003601f168201915b50505050508152602001600682018054600181600116156101000203166002900480601f016020809104026020016040519081016040528092919081815260200182805460018160011615610100020316600290048015611b795780601f10611b4e57610100808354040283529160200191611b79565b820191906000526020600020905b815481529060010190602001808311611b5c57829003601f168201915b50505050508152602001600782018054600181600116156101000203166002900480601f016020809104026020016040519081016040528092919081815260200182805460018160011615610100020316600290048015611c1b5780601f10611bf057610100808354040283529160200191611c1b565b820191906000526020600020905b815481529060010190602001808311611bfe57829003601f168201915b5050505050815260200160088201548152602001600982018054600181600116156101000203166002900480601f016020809104026020016040519081016040528092919081815260200182805460018160011615610100020316600290048015611cc75780601f10611c9c57610100808354040283529160200191611cc7565b820191906000526020600020905b815481529060010190602001808311611caa57829003601f168201915b50505050508152602001600a8201548152602001600b8201548152602001600c8201548152602001600d820160009054906101000a900460ff16600c811115611d0c57fe5b600c811115611d1757fe5b8152602001600d820160019054906101000a900473ffffffffffffffffffffffffffffffffffffffff1673ffffffffffffffffffffffffffffffffffffffff1673ffffffffffffffffffffffffffffffffffffffff168152602001600e820160009054906101000a900473ffffffffffffffffffffffffffffffffffffffff1673ffffffffffffffffffffffffffffffffffffffff1673ffffffffffffffffffffffffffffffffffffffff168152602001600f820160009054906101000a900473ffffffffffffffffffffffffffffffffffffffff1673ffffffffffffffffffffffffffffffffffffffff1673ffffffffffffffffffffffffffffffffffffffff1681525050905080600001518160200151826101000151836101200151846101600151856101400151866101a00151876101c00151886101e001518961020001518696509a509a509a509a509a509a509a509a509a509a50509193959799509193959799565b600560009054906101000a900473ffffffffffffffffffffffffffffffffffffffff1673ffffffffffffffffffffffffffffffffffffffff163373ffffffffffffffffffffffffffffffffffffffff1614611ed857600080fd5b600073ffffffffffffffffffffffffffffffffffffffff166000809054906101000a900473ffffffffffffffffffffffffffffffffffffffff1673ffffffffffffffffffffffffffffffffffffffff167f5c486528ec3e3f0ea91181cff8116f02bfa350e03b8b6f12e00765adbb5af85c60405160405180910390a360008060006101000a81548173ffffffffffffffffffffffffffffffffffffffff021916908373ffffffffffffffffffffffffffffffffffffffff160217905550565b611fa033612b76565b611fa957600080fd5b806002600c811115611fb757fe5b60086000838152602001908152602001600020600d0160009054906101000a900460ff16600c811115611fe657fe5b14611ff057600080fd5b6008600083815260200190815260200160002060030160009054906101000a900473ffffffffffffffffffffffffffffffffffffffff168073ffffffffffffffffffffffffffffffffffffffff163373ffffffffffffffffffffffffffffffffffffffff161461205f57600080fd5b600360086000858152602001908152602001600020600d0160006101000a81548160ff0219169083600c81111561209257fe5b02179055507fe6ae062d51064ae2a5a31a72fcb1bee1d343fdc6bddc1d3dfce658ece4f03212836040518082815260200191505060405180910390a1505050565b6120dc336129c6565b6120e557600080fd5b6120ee81613b15565b50565b600080600080606080606080600080612108613fa1565b600860008d81526020019081526020016000206040518061022001604052908160008201548152602001600182015481526020016002820160009054906101000a900473ffffffffffffffffffffffffffffffffffffffff1673ffffffffffffffffffffffffffffffffffffffff1673ffffffffffffffffffffffffffffffffffffffff1681526020016003820160009054906101000a900473ffffffffffffffffffffffffffffffffffffffff1673ffffffffffffffffffffffffffffffffffffffff1673ffffffffffffffffffffffffffffffffffffffff168152602001600482018054600181600116156101000203166002900480601f0160208091040260200160405190810160405280929190818152602001828054600181600116156101000203166002900480156122805780601f1061225557610100808354040283529160200191612280565b820191906000526020600020905b81548152906001019060200180831161226357829003601f168201915b50505050508152602001600582018054600181600116156101000203166002900480601f0160208091040260200160405190810160405280929190818152602001828054600181600116156101000203166002900480156123225780601f106122f757610100808354040283529160200191612322565b820191906000526020600020905b81548152906001019060200180831161230557829003601f168201915b50505050508152602001600682018054600181600116156101000203166002900480601f0160208091040260200160405190810160405280929190818152602001828054600181600116156101000203166002900480156123c45780601f10612399576101008083540402835291602001916123c4565b820191906000526020600020905b8154815290600101906020018083116123a757829003601f168201915b50505050508152602001600782018054600181600116156101000203166002900480601f0160208091040260200160405190810160405280929190818152602001828054600181600116156101000203166002900480156124665780601f1061243b57610100808354040283529160200191612466565b820191906000526020600020905b81548152906001019060200180831161244957829003601f168201915b5050505050815260200160088201548152602001600982018054600181600116156101000203166002900480601f0160208091040260200160405190810160405280929190818152602001828054600181600116156101000203166002900480156125125780601f106124e757610100808354040283529160200191612512565b820191906000526020600020905b8154815290600101906020018083116124f557829003601f168201915b50505050508152602001600a8201548152602001600b8201548152602001600c8201548152602001600d820160009054906101000a900460ff16600c81111561255757fe5b600c81111561256257fe5b8152602001600d820160019054906101000a900473ffffffffffffffffffffffffffffffffffffffff1673ffffffffffffffffffffffffffffffffffffffff1673ffffffffffffffffffffffffffffffffffffffff168152602001600e820160009054906101000a900473ffffffffffffffffffffffffffffffffffffffff1673ffffffffffffffffffffffffffffffffffffffff1673ffffffffffffffffffffffffffffffffffffffff168152602001600f820160009054906101000a900473ffffffffffffffffffffffffffffffffffffffff1673ffffffffffffffffffffffffffffffffffffffff1673ffffffffffffffffffffffffffffffffffffffff16815250509050806000015181602001518260400151836060015184608001518560a001518660c001518760e001518861014001518961018001518595508494508393508292509a509a509a509a509a509a509a509a509a509a50509193959799509193959799565b6126d533612b76565b6126de57600080fd5b6126e781613b6f565b50565b6126f333613bc9565b565b6126fe336129c6565b61270757600080fd5b806008600c81111561271557fe5b60086000838152602001908152602001600020600d0160009054906101000a900460ff16600c81111561274457fe5b1461274e57600080fd5b60086000838152602001908152602001600020600d0160019054906101000a900473ffffffffffffffffffffffffffffffffffffffff168073ffffffffffffffffffffffffffffffffffffffff163373ffffffffffffffffffffffffffffffffffffffff16146127bd57600080fd5b600960086000858152602001908152602001600020600d0160006101000a81548160ff0219169083600c8111156127f057fe5b02179055507fc5c33776d405e5686e4386e1ef31a65cf6195e4f7ceb8808ab64d05b6ccbc2a6836040518082815260200191505060405180910390a1505050565b6000612847826004613a2990919063ffffffff16565b9050919050565b612857336129c6565b61286057600080fd5b816006600c81111561286e57fe5b60086000838152602001908152602001600020600d0160009054906101000a900460ff16600c81111561289d57fe5b146128a757600080fd5b6008600084815260200190815260200160002060020160009054906101000a900473ffffffffffffffffffffffffffffffffffffffff168073ffffffffffffffffffffffffffffffffffffffff163373ffffffffffffffffffffffffffffffffffffffff161461291657600080fd5b600760086000868152602001908152602001600020600d0160006101000a81548160ff0219169083600c81111561294957fe5b02179055508260086000868152602001908152602001600020600b01819055507f539b4a835a8a5d1bc5756a9f146e2bfeaa6bd6b1fa77a7631c0a5154c86cdd036006546040518082815260200191505060405180910390a150505050565b6129b13361187d565b6129ba57600080fd5b6129c381613c23565b50565b60006129dc826002613a2990919063ffffffff16565b9050919050565b60008060009054906101000a900473ffffffffffffffffffffffffffffffffffffffff1673ffffffffffffffffffffffffffffffffffffffff163373ffffffffffffffffffffffffffffffffffffffff1614905090565b612a43336129c6565b612a4c57600080fd5b806005600c811115612a5a57fe5b60086000838152602001908152602001600020600d0160009054906101000a900460ff16600c811115612a8957fe5b14612a9357600080fd5b6008600083815260200190815260200160002060020160009054906101000a900473ffffffffffffffffffffffffffffffffffffffff168073ffffffffffffffffffffffffffffffffffffffff163373ffffffffffffffffffffffffffffffffffffffff1614612b0257600080fd5b600660086000858152602001908152602001600020600d0160006101000a81548160ff0219169083600c811115612b3557fe5b02179055507fe66bb55f536a4cc96647dde6ff37b712c07348eaa88366931f491d93c0fcd981836040518082815260200191505060405180910390a1505050565b6000612b8c826001613a2990919063ffffffff16565b9050919050565b612b9c33613c7d565b565b612ba733612831565b612bb057600080fd5b80600b600c811115612bbe57fe5b60086000838152602001908152602001600020600d0160009054906101000a900460ff16600c811115612bed57fe5b14612bf757600080fd5b60086000838152602001908152602001600020600b015480341015612c1b57600080fd5b8233600060086000848152602001908152602001600020600b01549050600081340390508273ffffffffffffffffffffffffffffffffffffffff166108fc829081150290604051600060405180830381858888f19350505050158015612c85573d6000803e3d6000fd5b503360086000898152602001908152602001600020600f0160006101000a81548173ffffffffffffffffffffffffffffffffffffffff021916908373ffffffffffffffffffffffffffffffffffffffff1602179055506000612d1c600860008a8152602001908152602001600020600e0160009054906101000a900473ffffffffffffffffffffffffffffffffffffffff16613a1f565b90508073ffffffffffffffffffffffffffffffffffffffff166108fc600860008b8152602001908152602001600020600b01549081150290604051600060405180830381858888f19350505050158015612d7a573d6000803e3d6000fd5b5033600860008a815260200190815260200160002060020160006101000a81548173ffffffffffffffffffffffffffffffffffffffff021916908373ffffffffffffffffffffffffffffffffffffffff16021790555033600860008a8152602001908152602001600020600f0160006101000a81548173ffffffffffffffffffffffffffffffffffffffff021916908373ffffffffffffffffffffffffffffffffffffffff160217905550600c600860008a8152602001908152602001600020600d0160006101000a81548160ff0219169083600c811115612e5857fe5b021790555043600960008a8152602001908152602001600020600201819055507fc7e94446a942a0541d0224ece380a730c85f03db7188fca783225da9255929f7886040518082815260200191505060405180910390a15050505050505050565b60008060009054906101000a900473ffffffffffffffffffffffffffffffffffffffff16905090565b612eeb33612b76565b612ef457600080fd5b6000806000612f01613fa1565b6007548160000181815250508a81602001818152505033816040019073ffffffffffffffffffffffffffffffffffffffff16908173ffffffffffffffffffffffffffffffffffffffff168152505033816060019073ffffffffffffffffffffffffffffffffffffffff16908173ffffffffffffffffffffffffffffffffffffffff1681525050898160800181905250888160a00181905250878160c00181905250868160e001819052506007548b018161010001818152505085816101200181905250848161016001818152505042816101400181815250506000816101800181815250506000816101a00190600c811115612ff957fe5b9081600c81111561300657fe5b8152505083816101c0019073ffffffffffffffffffffffffffffffffffffffff16908173ffffffffffffffffffffffffffffffffffffffff168152505082816101e0019073ffffffffffffffffffffffffffffffffffffffff16908173ffffffffffffffffffffffffffffffffffffffff16815250508181610200019073ffffffffffffffffffffffffffffffffffffffff16908173ffffffffffffffffffffffffffffffffffffffff168152505080600860008d8152602001908152602001600020600082015181600001556020820151816001015560408201518160020160006101000a81548173ffffffffffffffffffffffffffffffffffffffff021916908373ffffffffffffffffffffffffffffffffffffffff16021790555060608201518160030160006101000a81548173ffffffffffffffffffffffffffffffffffffffff021916908373ffffffffffffffffffffffffffffffffffffffff160217905550608082015181600401908051906020019061318792919061409e565b5060a08201518160050190805190602001906131a492919061409e565b5060c08201518160060190805190602001906131c192919061409e565b5060e08201518160070190805190602001906131de92919061409e565b50610100820151816008015561012082015181600901908051906020019061320792919061409e565b5061014082015181600a015561016082015181600b015561018082015181600c01556101a082015181600d0160006101000a81548160ff0219169083600c81111561324e57fe5b02179055506101c082015181600d0160016101000a81548173ffffffffffffffffffffffffffffffffffffffff021916908373ffffffffffffffffffffffffffffffffffffffff1602179055506101e082015181600e0160006101000a81548173ffffffffffffffffffffffffffffffffffffffff021916908373ffffffffffffffffffffffffffffffffffffffff16021790555061020082015181600f0160006101000a81548173ffffffffffffffffffffffffffffffffffffffff021916908373ffffffffffffffffffffffffffffffffffffffff1602179055509050506000613338613f80565b81816000018181525050818160200181815250508181604001818152505080600960008f81526020019081526020016000206000820151816000015560208201518160010155604082015181600201559050506001600754016007819055507fe8a027a2bb83abbf6ec926b84d4aeb91585c16b58b27b8d0f0fb451566a552118d6040518082815260200191505060405180910390a150505050505050505050505050565b6133e633612b76565b6133ef57600080fd5b816000600c8111156133fd57fe5b60086000838152602001908152602001600020600d0160009054906101000a900460ff16600c81111561342c57fe5b1461343657600080fd5b6008600084815260200190815260200160002060020160009054906101000a900473ffffffffffffffffffffffffffffffffffffffff168073ffffffffffffffffffffffffffffffffffffffff163373ffffffffffffffffffffffffffffffffffffffff16146134a557600080fd5b600160086000868152602001908152602001600020600d0160006101000a81548160ff0219169083600c8111156134d857fe5b02179055508260086000868152602001908152602001600020600b01819055507f7a02b5a0b1f928cffcafd0e750f369a40f124f4f34f65801fe1f0d945b9a7915846040518082815260200191505060405180910390a150505050565b61353e336129c6565b61354757600080fd5b816004600c81111561355557fe5b60086000838152602001908152602001600020600d0160009054906101000a900460ff16600c81111561358457fe5b1461358e57600080fd5b6008600084815260200190815260200160002060020160009054906101000a900473ffffffffffffffffffffffffffffffffffffffff168073ffffffffffffffffffffffffffffffffffffffff163373ffffffffffffffffffffffffffffffffffffffff16146135fd57600080fd5b600560086000868152602001908152602001600020600d0160006101000a81548160ff0219169083600c81111561363057fe5b02179055508260086000868152602001908152602001600020600c01819055507f5725e53fd0efed5294b7db2af148f040264a63630b4deb0afbccf6e60830988a846040518082815260200191505060405180910390a150505050565b600560009054906101000a900473ffffffffffffffffffffffffffffffffffffffff1673ffffffffffffffffffffffffffffffffffffffff163373ffffffffffffffffffffffffffffffffffffffff16146136e757600080fd5b6136f081613cd7565b50565b6136fc81613dcf565b50565b613708336129c6565b61371157600080fd5b806001600c81111561371f57fe5b60086000838152602001908152602001600020600d0160009054906101000a900460ff16600c81111561374e57fe5b1461375857600080fd5b60086000838152602001908152602001600020600b01548034101561377c57600080fd5b8233600060086000848152602001908152602001600020600b01549050600081340390508273ffffffffffffffffffffffffffffffffffffffff166108fc829081150290604051600060405180830381858888f193505050501580156137e6573d6000803e3d6000fd5b506000613828600860008a815260200190815260200160002060030160009054906101000a900473ffffffffffffffffffffffffffffffffffffffff16613a1f565b90508073ffffffffffffffffffffffffffffffffffffffff166108fc600860008b8152602001908152602001600020600b01549081150290604051600060405180830381858888f19350505050158015613886573d6000803e3d6000fd5b5033600860008a815260200190815260200160002060020160006101000a81548173ffffffffffffffffffffffffffffffffffffffff021916908373ffffffffffffffffffffffffffffffffffffffff16021790555033600860008a8152602001908152602001600020600d0160016101000a81548173ffffffffffffffffffffffffffffffffffffffff021916908373ffffffffffffffffffffffffffffffffffffffff1602179055506002600860008a8152602001908152602001600020600d0160006101000a81548160ff0219169083600c81111561396457fe5b021790555043600960008a8152602001908152602001600020600001819055507facd9402b9f9e8c15fa7c1819f8393ca56eb61316cc354fc6ac2150aed3ce7931886040518082815260200191505060405180910390a15050505050505050565b6139d9816004613e2990919063ffffffff16565b8073ffffffffffffffffffffffffffffffffffffffff167f28b26e7a3d20aedbc5f8f2ebf7da671c0491723a2b78f47a097b0e46dee0714260405160405180910390a250565b6000819050919050565b60008073ffffffffffffffffffffffffffffffffffffffff168273ffffffffffffffffffffffffffffffffffffffff161415613a6457600080fd5b8260000160008373ffffffffffffffffffffffffffffffffffffffff1673ffffffffffffffffffffffffffffffffffffffff16815260200190815260200160002060009054906101000a900460ff16905092915050565b613acf816002613ed590919063ffffffff16565b8073ffffffffffffffffffffffffffffffffffffffff167f126174f6cf49c81cdb4a9214c6b8f037bef55b4ec31e4fc776cea2a1c8a88d5960405160405180910390a250565b613b29816002613e2990919063ffffffff16565b8073ffffffffffffffffffffffffffffffffffffffff167fddbf200aa634dc3fb81cfd68583dd1040d1c751d335e1d86b631bde3e977fea860405160405180910390a250565b613b83816001613e2990919063ffffffff16565b8073ffffffffffffffffffffffffffffffffffffffff167f2e0ded4123377a3c2bc9a26f1717655a129e2f20752924d42e730ec89c83dbd060405160405180910390a250565b613bdd816001613ed590919063ffffffff16565b8073ffffffffffffffffffffffffffffffffffffffff167fa5e0f060af304ab17dd418c7927e3da3ae7868189bf387aee09ab179ccc572f260405160405180910390a250565b613c37816003613e2990919063ffffffff16565b8073ffffffffffffffffffffffffffffffffffffffff167f71ae26cad02663e3d92efd6ec56031a80d74a20c0ab4183faa8bf262261c9baa60405160405180910390a250565b613c91816003613ed590919063ffffffff16565b8073ffffffffffffffffffffffffffffffffffffffff167fdb7176e79cffef81cb01767dd0447a0b24bb72ca9778d4b245581086b2a7e6db60405160405180910390a250565b600073ffffffffffffffffffffffffffffffffffffffff168173ffffffffffffffffffffffffffffffffffffffff161415613d1157600080fd5b8073ffffffffffffffffffffffffffffffffffffffff166000809054906101000a900473ffffffffffffffffffffffffffffffffffffffff1673ffffffffffffffffffffffffffffffffffffffff167f5c486528ec3e3f0ea91181cff8116f02bfa350e03b8b6f12e00765adbb5af85c60405160405180910390a3806000806101000a81548173ffffffffffffffffffffffffffffffffffffffff021916908373ffffffffffffffffffffffffffffffffffffffff16021790555050565b613de3816004613ed590919063ffffffff16565b8073ffffffffffffffffffffffffffffffffffffffff167fe3f5ed5f263f1f01764a96edfc7d025f511ec5f7d180e8816908b78bcf74f09860405160405180910390a250565b600073ffffffffffffffffffffffffffffffffffffffff168173ffffffffffffffffffffffffffffffffffffffff161415613e6357600080fd5b613e6d8282613a29565b15613e7757600080fd5b60018260000160008373ffffffffffffffffffffffffffffffffffffffff1673ffffffffffffffffffffffffffffffffffffffff16815260200190815260200160002060006101000a81548160ff0219169083151502179055505050565b600073ffffffffffffffffffffffffffffffffffffffff168173ffffffffffffffffffffffffffffffffffffffff161415613f0f57600080fd5b613f198282613a29565b613f2257600080fd5b60008260000160008373ffffffffffffffffffffffffffffffffffffffff1673ffffffffffffffffffffffffffffffffffffffff16815260200190815260200160002060006101000a81548160ff0219169083151502179055505050565b60405180606001604052806000815260200160008152602001600081525090565b6040518061022001604052806000815260200160008152602001600073ffffffffffffffffffffffffffffffffffffffff168152602001600073ffffffffffffffffffffffffffffffffffffffff1681526020016060815260200160608152602001606081526020016060815260200160008152602001606081526020016000815260200160008152602001600081526020016000600c81111561404157fe5b8152602001600073ffffffffffffffffffffffffffffffffffffffff168152602001600073ffffffffffffffffffffffffffffffffffffffff168152602001600073ffffffffffffffffffffffffffffffffffffffff1681525090565b828054600181600116156101000203166002900490600052602060002090601f016020900481019282601f106140df57805160ff191683800117855561410d565b8280016001018555821561410d579182015b8281111561410c5782518255916020019190600101906140f1565b5b50905061411a919061411e565b5090565b61414091905b8082111561413c576000816000905550600101614124565b5090565b9056fea265627a7a72315820f036608f92533ec4fa06c05558943a3c770d1c092a43df65fe9d6dcc8ebb92f064736f6c63430005100032",
  "source": "pragma solidity >=0.4.24;\r\n\r\n// inherited contracts\r\nimport '../parmigianocore/Ownable.sol';\r\nimport '../parmigianoaccesscontrol/FarmerRole.sol';\r\nimport '../parmigianoaccesscontrol/DistributorRole.sol';\r\nimport '../parmigianoaccesscontrol/RetailerRole.sol';\r\nimport '../parmigianoaccesscontrol/ConsumerRole.sol';\r\n\r\n\r\n// Define a contract 'Supplychain'\r\ncontract SupplyChain is Ownable,FarmerRole,DistributorRole,RetailerRole,ConsumerRole {\r\n\r\n  // Define 'owner'\r\n  address owner;\r\n\r\n  // Define a variable called 'upc' for Universal Product Code (UPC)\r\n  uint  upc;\r\n\r\n  // Define a variable called 'sku' for Stock Keeping Unit (SKU)\r\n  uint  sku;\r\n\r\n  // Define a public mapping 'items' that maps the UPC to an Item.\r\n  mapping (uint => Item) items;\r\n\r\n  // Define a public mapping 'itemsHistory' that maps the UPC to an array of TxHash,\r\n  // that track its journey through the supply chain -- to be sent from DApp.\r\n  mapping (uint => Txblocks) itemsHistory;\r\n\r\n  // Define enum 'State' with the following values:\r\n  enum State\r\n  {\r\n    ProduceByFarmer,         // 0\r\n    ForSaleByFarmer,         // 1\r\n    PurchasedByDistributor,  // 2\r\n    ShippedByFarmer,         // 3\r\n    ReceivedByDistributor,   // 4\r\n    ProcessedByDistributor,  // 5\r\n    PackageByDistributor,    // 6\r\n    ForSaleByDistributor,    // 7\r\n    PurchasedByRetailer,     // 8\r\n    ShippedByDistributor,    // 9\r\n    ReceivedByRetailer,      // 10\r\n    ForSaleByRetailer,       // 11\r\n    PurchasedByConsumer      // 12\r\n    }\r\n\r\n\r\n  State constant defaultState = State.ProduceByFarmer;\r\n\r\n  // Define a struct 'Item' with the following fields:\r\n  struct Item {\r\n    uint    sku;                    // Stock Keeping Unit (SKU)\r\n    uint    upc;                    // Universal Product Code (UPC), generated by the Farmer, goes on the package, can be verified by the Consumer\r\n    address ownerID;                // Metamask-Ethereum address of the current owner as the product moves through 8 stages\r\n    address originFarmerID;         // Metamask-Ethereum address of the Farmer // ADDED PAYABLE\r\n    string  originFarmName;         // Farmer Name\r\n    string  originFarmInformation;  // Farmer Information\r\n    string  originFarmLatitude;     // Farm Latitude\r\n    string  originFarmLongitude;    // Farm Longitude\r\n    uint    productID;              // Product ID potentially a combination of upc + sku\r\n    string  productNotes;           // Product Notes\r\n    uint256 productDate;            // Product Date NOTE: MIGHT NEED TO CHANGE type\r\n    uint    productPrice;           // Product Price\r\n    uint    productSliced;          // Parent cheese\r\n    State   itemState;              // Product State as represented in the enum above\r\n    address distributorID;          // Metamask-Ethereum address of the Distributor\r\n    address retailerID;             // Metamask-Ethereum address of the Retailer\r\n    address consumerID;             // Metamask-Ethereum address of the Consumer // ADDED payable\r\n  }\r\n\r\n// Block number stuct\r\n  struct Txblocks {\r\n    uint FTD; // blockfarmerToDistributor\r\n    uint DTR; // blockDistributorToRetailer\r\n    uint RTC; // blockRetailerToConsumer\r\n  }\r\n\r\n\r\nevent ProduceByFarmer(uint upc);         //1\r\nevent ForSaleByFarmer(uint upc);         //2\r\nevent PurchasedByDistributor(uint upc);  //3\r\nevent ShippedByFarmer(uint upc);         //4\r\nevent ReceivedByDistributor(uint upc);   //5\r\nevent ProcessedByDistributor(uint upc);  //6\r\nevent PackagedByDistributor(uint upc);   //7\r\nevent ForSaleByDistributor(uint upc);    //8\r\nevent PurchasedByRetailer(uint upc);     //9\r\nevent ShippedByDistributor(uint upc);    //10\r\nevent ReceivedByRetailer(uint upc);      //11\r\nevent ForSaleByRetailer(uint upc);       //12\r\nevent PurchasedByConsumer(uint upc);     //13\r\n\r\n\r\n  // Define a modifer that checks to see if msg.sender == owner of the contract\r\n  modifier onlyOwner() {\r\n    require(msg.sender == owner);\r\n    _;\r\n  }\r\n\r\n  // Define a modifer that verifies the Caller\r\n  modifier verifyCaller (address _address) {\r\n    require(msg.sender == _address);\r\n    _;\r\n  }\r\n\r\n  // Define a modifier that checks if the paid amount is sufficient to cover the price\r\n  modifier paidEnough(uint _price) {\r\n    require(msg.value >= _price);\r\n    _;\r\n  }\r\n\r\n  // Define a modifier that checks the price and refunds the remaining balance\r\n  modifier checkValue(uint _upc, address payable addressToFund) {\r\n    uint _price = items[_upc].productPrice;\r\n    uint  amountToReturn = msg.value - _price;\r\n    addressToFund.transfer(amountToReturn);\r\n    _;\r\n  }\r\n\r\n//Item State Modifiers\r\n  modifier producedByFarmer(uint _upc) {\r\n    require(items[_upc].itemState == State.ProduceByFarmer);\r\n    _;\r\n  }\r\n\r\n  modifier forSaleByFarmer(uint _upc) {\r\n    require(items[_upc].itemState == State.ForSaleByFarmer);\r\n    _;\r\n  }\r\n\r\n  modifier purchasedByDistributor(uint _upc) {\r\n    require(items[_upc].itemState == State.PurchasedByDistributor);\r\n    _;\r\n  }\r\n\r\n  modifier shippedByFarmer(uint _upc) {\r\n    require(items[_upc].itemState == State.ShippedByFarmer);\r\n    _;\r\n  }\r\n\r\n  modifier receivedByDistributor(uint _upc) {\r\n    require(items[_upc].itemState == State.ReceivedByDistributor);\r\n    _;\r\n  }\r\n\r\n  modifier processByDistributor(uint _upc) {\r\n    require(items[_upc].itemState == State.ProcessedByDistributor);\r\n    _;\r\n  }\r\n\r\n  modifier packagedByDistributor(uint _upc) {\r\n    require(items[_upc].itemState == State.PackageByDistributor);\r\n    _;\r\n  }\r\n\r\n  modifier forSaleByDistributor(uint _upc) {\r\n    require(items[_upc].itemState == State.ForSaleByDistributor);\r\n    _;\r\n  }\r\n\r\n\r\n  modifier shippedByDistributor(uint _upc) {\r\n    require(items[_upc].itemState == State.ShippedByDistributor);\r\n    _;\r\n  }\r\n\r\n  modifier purchasedByRetailer(uint _upc) {\r\n    require(items[_upc].itemState == State.PurchasedByRetailer);\r\n    _;\r\n  }\r\n\r\n  modifier receivedByRetailer(uint _upc) {\r\n    require(items[_upc].itemState == State.ReceivedByRetailer);\r\n    _;\r\n  }\r\n\r\n  modifier forSaleByRetailer(uint _upc) {\r\n    require(items[_upc].itemState == State.ForSaleByRetailer);\r\n    _;\r\n  }\r\n\r\n  modifier purchasedByConsumer(uint _upc) {\r\n    require(items[_upc].itemState == State.PurchasedByConsumer);\r\n    _;\r\n  }\r\n\r\n// constructor setup owner sku upc\r\n  constructor() public payable {\r\n    owner = msg.sender;\r\n    sku = 1;\r\n    upc = 1;\r\n  }\r\n\r\n    // Define a function 'kill'\r\n  function kill() public {\r\n    if (msg.sender == owner) {\r\n      address payable ownerAddressPayable = _make_payable(owner);\r\n      selfdestruct(ownerAddressPayable);\r\n    }\r\n  }\r\n\r\n\r\n    // allows you to convert an address into a payable address\r\n  function _make_payable(address x) internal pure returns (address payable) {\r\n      return address(uint160(x));\r\n  }\r\n\r\n/*\r\n 1st step in supplychain\r\n Allows farmer to create cheese\r\n*/\r\n  function produceItemByFarmer(uint _upc, string memory _originFarmName, string memory _originFarmInformation, string memory _originFarmLatitude, string memory _originFarmLongitude, string memory _productNotes, uint _price) public\r\n    onlyFarmer() // check address belongs to farmerRole\r\n    {\r\n\r\n    address distributorID; // Empty distributorID address\r\n    address retailerID; // Empty retailerID address\r\n    address consumerID; // Empty consumerID address\r\n    Item memory newProduce; // Create a new struct Item in memory\r\n    newProduce.sku = sku;  // Stock Keeping Unit (SKU)\r\n    newProduce.upc = _upc; // Universal Product Code (UPC), generated by the Farmer, goes on the package, can be verified by the Consumer\r\n    newProduce.ownerID = msg.sender;  // Metamask-Ethereum address of the current owner as the product moves through 8 stages\r\n    newProduce.originFarmerID = msg.sender; // Metamask-Ethereum address of the Farmer\r\n    newProduce.originFarmName = _originFarmName;  // Farmer Name\r\n    newProduce.originFarmInformation = _originFarmInformation; // Farmer Information\r\n    newProduce.originFarmLatitude = _originFarmLatitude; // Farm Latitude\r\n    newProduce.originFarmLongitude = _originFarmLongitude;  // Farm Longitude\r\n    newProduce.productID = _upc+sku;  // Product ID\r\n    newProduce.productNotes = _productNotes; // Product Notes\r\n    newProduce.productPrice = _price;  // Product Price\r\n    newProduce.productDate = now;\r\n    newProduce.productSliced = 0;\r\n    newProduce.itemState = defaultState; // Product State as represented in the enum above\r\n    newProduce.distributorID = distributorID; // Metamask-Ethereum address of the Distributor\r\n    newProduce.retailerID = retailerID; // Metamask-Ethereum address of the Retailer\r\n    newProduce.consumerID = consumerID; // Metamask-Ethereum address of the Consumer // ADDED payable\r\n    items[_upc] = newProduce; // Add newProduce to items struct by upc\r\n    uint placeholder; // Block number place holder\r\n    Txblocks memory txBlock; // create new txBlock struct\r\n    txBlock.FTD = placeholder; // assign placeholder values\r\n    txBlock.DTR = placeholder;\r\n    txBlock.RTC = placeholder;\r\n    itemsHistory[_upc] = txBlock; // add txBlock to itemsHistory mapping by upc\r\n\r\n    // Increment sku\r\n    sku = sku + 1;\r\n\r\n    // Emit the appropriate event\r\n    emit ProduceByFarmer(_upc);\r\n\r\n  }\r\n\r\n/*\r\n2nd step in supplychain\r\nAllows farmer to sell cheese\r\n*/\r\n  function sellItemByFarmer(uint _upc, uint _price) public\r\n    onlyFarmer() // check msg.sender belongs to farmerRole\r\n    producedByFarmer(_upc) // check items state has been produced\r\n    verifyCaller(items[_upc].ownerID) // check msg.sender is owner\r\n    {\r\n      items[_upc].itemState = State.ForSaleByFarmer;\r\n      items[_upc].productPrice = _price;\r\n      emit ForSaleByFarmer(_upc);\r\n  }\r\n\r\n/*\r\n3rd step in supplychain\r\nAllows distributor to purchase cheese\r\n*/\r\n  function purchaseItemByDistributor(uint _upc) public payable\r\n    onlyDistributor() // check msg.sender belongs to distributorRole\r\n    forSaleByFarmer(_upc) // check items state is for ForSaleByFarmer\r\n    paidEnough(items[_upc].productPrice) // check if distributor sent enough Ether for cheese\r\n    checkValue(_upc, msg.sender) // check if overpayed return remaing funds back to msg.sender\r\n    {\r\n    address payable ownerAddressPayable = _make_payable(items[_upc].originFarmerID); // make originFarmID payable\r\n    ownerAddressPayable.transfer(items[_upc].productPrice); // transfer funds from distributor to farmer\r\n    items[_upc].ownerID = msg.sender; // update owner\r\n    items[_upc].distributorID = msg.sender; // update distributor\r\n    items[_upc].itemState = State.PurchasedByDistributor; // update state\r\n    itemsHistory[_upc].FTD = block.number; // add block number\r\n    emit PurchasedByDistributor(_upc);\r\n\r\n  }\r\n\r\n  /*\r\n  4th step in supplychain\r\n  Allows farmer to ship cheese purchased by distributor\r\n  */\r\n  function shippedItemByFarmer(uint _upc) public payable\r\n    onlyFarmer() // check msg.sender belongs to FarmerRole\r\n    purchasedByDistributor(_upc)\r\n    verifyCaller(items[_upc].originFarmerID) // check msg.sender is originFarmID\r\n    {\r\n    items[_upc].itemState = State.ShippedByFarmer; // update state\r\n    emit ShippedByFarmer(_upc);\r\n  }\r\n\r\n  /*\r\n  5th step in supplychain\r\n  Allows distributor to receive cheese\r\n  */\r\n  function receivedItemByDistributor(uint _upc) public\r\n    onlyDistributor() // check msg.sender belongs to DistributorRole\r\n    shippedByFarmer(_upc)\r\n    verifyCaller(items[_upc].ownerID) // check msg.sender is owner\r\n    {\r\n    items[_upc].itemState = State.ReceivedByDistributor; // update state\r\n    emit ReceivedByDistributor(_upc);\r\n  }\r\n\r\n  /*\r\n  6th step in supplychain\r\n  Allows distributor to process cheese\r\n  */\r\n  function processedItemByDistributor(uint _upc,uint slices) public\r\n    onlyDistributor() // check msg.sender belongs to DistributorRole\r\n    receivedByDistributor(_upc)\r\n    verifyCaller(items[_upc].ownerID) // check msg.sender is owner\r\n    {\r\n    items[_upc].itemState = State.ProcessedByDistributor; // update state\r\n    items[_upc].productSliced = slices; // add slice amount\r\n    emit ProcessedByDistributor(_upc);\r\n  }\r\n\r\n  /*\r\n  7th step in supplychain\r\n  Allows distributor to package cheese\r\n  */\r\n  function packageItemByDistributor(uint _upc) public\r\n    onlyDistributor() // check msg.sender belongs to DistributorRole\r\n    processByDistributor(_upc)\r\n    verifyCaller(items[_upc].ownerID) // check msg.sender is owner\r\n    {\r\n    items[_upc].itemState = State.PackageByDistributor;\r\n    emit PackagedByDistributor(_upc);\r\n  }\r\n\r\n  /*\r\n  8th step in supplychain\r\n  Allows distributor to sell cheese\r\n  */\r\n  function sellItemByDistributor(uint _upc, uint _price) public\r\n    onlyDistributor() // check msg.sender belongs to DistributorRole\r\n    packagedByDistributor(_upc)\r\n    verifyCaller(items[_upc].ownerID) // check msg.sender is owner\r\n    {\r\n        items[_upc].itemState = State.ForSaleByDistributor;\r\n        items[_upc].productPrice = _price;\r\n        emit ForSaleByDistributor(upc);\r\n  }\r\n\r\n  /*\r\n  9th step in supplychain\r\n  Allows retailer to purchase cheese\r\n  */\r\n  function purchaseItemByRetailer(uint _upc) public payable\r\n    onlyRetailer() // check msg.sender belongs to RetailerRole\r\n    forSaleByDistributor(_upc)\r\n    paidEnough(items[_upc].productPrice)\r\n    checkValue(_upc, msg.sender)\r\n    {\r\n    address payable ownerAddressPayable = _make_payable(items[_upc].distributorID);\r\n    ownerAddressPayable.transfer(items[_upc].productPrice);\r\n    items[_upc].ownerID = msg.sender;\r\n    items[_upc].retailerID = msg.sender;\r\n    items[_upc].itemState = State.PurchasedByRetailer;\r\n    itemsHistory[_upc].DTR = block.number;\r\n    emit PurchasedByRetailer(_upc);\r\n  }\r\n\r\n  /*\r\n  10th step in supplychain\r\n  Allows Distributor to\r\n  */\r\n  function shippedItemByDistributor(uint _upc) public\r\n    onlyDistributor() // check msg.sender belongs to DistributorRole\r\n    purchasedByRetailer(_upc)\r\n    verifyCaller(items[_upc].distributorID) // check msg.sender is distributorID\r\n    {\r\n      items[_upc].itemState = State.ShippedByDistributor;\r\n      emit ShippedByDistributor(_upc);\r\n  }\r\n\r\n  /*\r\n  11th step in supplychain\r\n  */\r\n  function receivedItemByRetailer(uint _upc) public\r\n    onlyRetailer() // check msg.sender belongs to RetailerRole\r\n    shippedByDistributor(_upc)\r\n    verifyCaller(items[_upc].ownerID) // check msg.sender is ownerID\r\n    {\r\n      items[_upc].itemState = State.ReceivedByRetailer;\r\n      emit ReceivedByRetailer(_upc);\r\n  }\r\n\r\n  /*\r\n  12th step in supplychain\r\n  */\r\n  function sellItemByRetailer(uint _upc, uint _price) public\r\n    onlyRetailer()  // check msg.sender belongs to RetailerRole\r\n    receivedByRetailer(_upc)\r\n    verifyCaller(items[_upc].ownerID) // check msg.sender is ownerID\r\n    {\r\n      items[_upc].itemState = State.ForSaleByRetailer;\r\n      items[_upc].productPrice = _price;\r\n      emit ForSaleByRetailer(_upc);\r\n  }\r\n\r\n  /*\r\n  13th step in supplychain\r\n  */\r\n  function purchaseItemByConsumer(uint _upc) public payable\r\n    onlyConsumer()  // check msg.sender belongs to ConsumerRole\r\n    forSaleByRetailer(_upc)\r\n    paidEnough(items[_upc].productPrice)\r\n    checkValue(_upc, msg.sender)\r\n    {\r\n      items[_upc].consumerID = msg.sender;\r\n      address payable ownerAddressPayable = _make_payable(items[_upc].retailerID);\r\n      ownerAddressPayable.transfer(items[_upc].productPrice);\r\n      items[_upc].ownerID = msg.sender;\r\n      items[_upc].consumerID = msg.sender;\r\n      items[_upc].itemState = State.PurchasedByConsumer;\r\n      itemsHistory[_upc].RTC = block.number;\r\n    emit PurchasedByConsumer(_upc);\r\n  }\r\n\r\n  // Define a function 'fetchItemBufferOne' that fetches the data\r\n  function fetchItemBufferOne(uint _upc) public view returns\r\n    (\r\n    uint    itemSKU,\r\n    uint    itemUPC,\r\n    address ownerID,\r\n    address originFarmerID,\r\n    string memory  originFarmName,\r\n    string memory originFarmInformation,\r\n    string memory originFarmLatitude,\r\n    string memory originFarmLongitude,\r\n    uint productDate,\r\n    uint productSliced\r\n    )\r\n    {\r\n    // Assign values to the 8 parameters\r\n    Item memory item = items[_upc];\r\n\r\n    return\r\n    (\r\n      item.sku,\r\n      item.upc,\r\n      item.ownerID,\r\n      item.originFarmerID,\r\n      item.originFarmName,\r\n      item.originFarmInformation,\r\n      item.originFarmLatitude,\r\n      item.originFarmLongitude,\r\n      item.productDate,\r\n      item.productSliced\r\n    );\r\n  }\r\n\r\n  // Define a function 'fetchItemBufferTwo' that fetches the data\r\n  function fetchItemBufferTwo(uint _upc) public view returns\r\n    (\r\n    uint    itemSKU,\r\n    uint    itemUPC,\r\n    uint    productID,\r\n    string  memory productNotes,\r\n    uint    productPrice,\r\n    uint256 productDate,\r\n    State   itemState,\r\n    address distributorID,\r\n    address retailerID,\r\n    address consumerID\r\n    )\r\n    {\r\n      // Assign values to the 9 parameters\r\n    Item memory item = items[_upc];\r\n\r\n    return\r\n    (\r\n      item.sku,\r\n      item.upc,\r\n      item.productID,\r\n      item.productNotes,\r\n      item.productPrice,\r\n      item.productDate,\r\n      item.itemState,\r\n      item.distributorID,\r\n      item.retailerID,\r\n      item.consumerID\r\n    );\r\n\r\n  }\r\n\r\n  // Define a function 'fetchItemHistory' that fetaches the data\r\n  function fetchitemHistory(uint _upc) public view returns\r\n    (\r\n      uint blockfarmerToDistributor,\r\n      uint blockDistributorToRetailer,\r\n      uint blockRetailerToConsumer\r\n    )\r\n    {\r\n      // Assign value to the parameters\r\n      Txblocks memory txblock = itemsHistory[_upc];\r\n      return\r\n      (\r\n        txblock.FTD,\r\n        txblock.DTR,\r\n        txblock.RTC\r\n      );\r\n\r\n    }\r\n\r\n  }\r\n",
  "sourcePath": "/home/yashtrivedi/Experiments/Supply_Chain/contracts/parmigianobase/SupplyChain.sol",
  "compiler": {
    "name": "solc",
    "version": "0.5.16+commit.9c3226ce.Emscripten.clang"
  },
  "schemaVersion": "3.3.4",
  "updatedAt": "2021-03-25T10:39:36.117Z",
  "networkType": "ethereum",
  "devdoc": {
    "methods": {}
  },
  "userdoc": {
    "methods": {
      "isOwner()": {
        "notice": "Check if the calling address is the owner of the contract"
      },
      "ownerLookup()": {
        "notice": "Look up the address of the owner"
      },
      "renounceOwnership()": {
        "notice": "Define a function to renounce ownerhip"
      },
      "transferOwnership(address)": {
        "notice": "Define a public function to transfer ownership"
      }
    }
  }
}